:1000000000308A001B28000024308400831300087D
:10001000031918280130F800F701F70B0D28F80B29
:100020000C284A30F700F70B13281628800B0A28F3
:100030008A110A12CC2803081F398300FF30A00060
:1000400083161F149F141F159F1107309C008313E4
:100050001F109F101F119F111F1383121F139F1733
:1000600083169F1383121F1483169F178312003069
:10007000F8001F08C73978049F00013083168600F6
:10008000003087008312A000831688008610831238
:1000900086108316061183120611831686118312A9
:1000A0008611831606128312061283168612831295
:1000B0008612831606138312061383168613831281
:1000C0008613201020088316870083120710A010C3
:1000D00020088316870083128710201120088316BA
:1000E000870083120711A01120088316870083124E
:1000F0008711201220088316870083120712A0128E
:100100002008831687008312871220132008831685
:10011000870083120713A013200883168700831219
:100120008713831608108312081083168810831211
:100130008810831608118312081183168811831200
:1001400088118316081283120812831688128312EC
:1001500088128316081383120813831688138312D8
:100160008813A101A201A30123080319BB28013AA6
:100170000319E6280D29831606148312061CDD28B0
:100180001F151F19C1281E08A10083161E088312FF
:10019000A2000130A40004280030A00083168701CB
:1001A0008312210887000030A00083168801831283
:1001B000220888000130A300E528831686108312E8
:1001C000861083160611831206110D292208803C21
:1001D0000318F328831686108312861083160611DF
:1001E000831206150C292208103C031800298316D7
:1001F00086108312861483160611831206110C29A9
:1002000022080F3C031C0C298316861083128610CB
:0E0210008316061183120611A301B4286300A1
:02400E00313F40
:00000001FF
;PIC16F877A
;CRC=0589  CREATED="26-mar.-22 09:27"
