:1000000000308A001928000026308400831300087D
:10001000031918280130F800F701F70B0D28F80B29
:100020000C284A30F700F70B13281628800B0A28F3
:10003000080003081F398300193083169900A63081
:10004000980090308312980083161F149F141F1578
:100050009F1107309C0083130108C03907388100C5
:1000600064000C308600003088008312A101A201D8
:10007000A301A40183168801831288012108FB3E95
:100080000318B528053EB7288316881283128812F4
:100090008C1E48281A08A200220B51280130A1000A
:1000A000A201B5288C1E52281A08A200220B5B2838
:1000B0000230A100A201B5288C1E5C281A08A200FB
:1000C000220B65280330A100A201B5288316081071
:1000D00083120814831606158312061D8928A30AA5
:1000E0002308023C031D82280130A20022080C1EB6
:1000F000772899000A30A6000420A201A301043049
:10010000A10089280430A500FA30A6000420A50B20
:100110008428B528831608108312081083168812C5
:10012000831288164C30A40081010108FF3C031D96
:100130009B28A4039C289528A408031D94288316B3
:10014000881083128814831686158312861DB4289E
:100150000130A20022080C1EAB2899000A30A6002C
:100160000420A201A101B528A3283E2863000A109B
:100170008A100A118207442852285C2866288A2897
:02400E00313F40
:00000001FF
;PIC16F877A
;CRC=1B29  CREATED="11-abr.-20 12:31"
