:1000000000308A001928000025308400831300087E
:10001000031918280130F800F701F70B0D28F80B29
:100020000C284A30F700F70B13281628800B0A28F3
:10003000080003081F398300193083169900A63081
:10004000980090308312980083161F149F141F1578
:100050009F1107309C0083131F109F101F119F11C9
:100060001F1383121F139F1783169F1383121F14CE
:1000700083169F1783120030F8001F08C7397804D1
:100080009F00013083168600003088008312A10192
:10009000A201A301A4018316880183128801230809
:1000A000FB3E0318D028053ED2288316061483127F
:1000B000061C66280130A40024080C1E5D28990047
:1000C0000A30A5000420A4010130A300D0281F1588
:1000D0001F1968281E08A10083161E088312A2009B
:1000E0000130A5000420831608108312081422088A
:1000F000CF3C03188A28A108031D8A280130A400D8
:1001000024080C1E812899000A30A5000420A401AF
:100110000230A300D0281F151F198C281E08A1002B
:1001200083161E088312A2000130A5000420831646
:10013000081083120810831688108312881422086E
:10014000A13C0318B128210BB1280130A4002408D8
:100150000C1EA82899000A30A5000420A401033031
:10016000A300D028831688108312881083160811E4
:10017000831208158C1EBA281A08A400240BC32861
:100180000430A300A401D02883160811831208119B
:100190008C1EC8281A08A400240BD028A301A4018F
:1001A0004F2863000A108A100A1182075528672811
:0601B0008B28B228C428D0
:02400E00313F40
:00000001FF
;PIC16F877A
;CRC=46F1  CREATED="11-abr.-20 12:29"
