:1000000000308A001928000027308400831300087C
:10001000031918280130F800F701F70B0D28F80B29
:100020000C284A30F700F70B13281628800B0A28F3
:10003000080003081F398300FF30A00083161F1437
:100040009F141F159F1107309C0083131F109F10D2
:100050001F119F111F1383121F139F1783169F13C6
:1000600083121F1483169F1783120030F8001F0895
:10007000C73978049F00053083168600003087005A
:100080008312A000A101A201A301A401A501A00067
:1000900083168701831287012308FB3E0318E92892
:1000A000053EEB28201220088316870083120712D2
:1000B0002011200883168700831207118316061467
:1000C0008312061C65280130A300E9281F151F199B
:1000D00067281E08A10083161E088312A2000130A3
:1000E000A70004202010200883168700831207141D
:1000F0002208D03C03188128A108031D8128023062
:10010000A300E9281F151F1983281E08A1008316C4
:100110001E088312A2000130A7000420201020082E
:100120008316870083120710A0102008831687000B
:10013000831287142208D03C0318A228210BA2287E
:100140000330A300E928A01020088316870083123B
:100150008710201120088316870083120715A0112D
:1001600020088316870083128715831606158312CD
:10017000061DC928A40A0430A600FA30A7000420EE
:10018000A60BBD282408023C031DC928A401043085
:10019000A300E928A0112008831687008312871185
:1001A0002012200883168700831207164C30A50002
:1001B00081010108FF3C031DDF28A503E028D928A1
:1001C000A508031DD8288316861583128619A30156
:1001D000E3284C2863000A108A100A11820752286B
:0801E00066288228A328CA2822
:02400E00313F40
:00000001FF
;PIC16F877A
;CRC=053F  CREATED="07-abr.-20 12:18"
